:100000000C9462000C948A000C948A000C948A0070
:100010000C948A000C948A000C948A000C948A0038
:100020000C948A000C948A000C948A000C94850429
:100030000C948A000C948A000C948A000C948A0018
:100040000C943B040C948A000C948A000C948A0053
:100050000C948A000C948A000C948A000C948A00F8
:100060000C948A000C948A000000000024002700F1
:100070002A0000000000250028002B0000000000DE
:1000800023002600290004040404040404040202DA
:100090000202020203030303030301020408102007
:1000A0004080010204081020010204081020000012
:1000B0000008000201000003040700000000000027
:1000C0000000970611241FBECFEFD8E0DEBFCDBFE2
:1000D00011E0A0E0B1E0E8EBFEE002C005900D9277
:1000E000AE33B107D9F721E0AEE3B1E001C01D9214
:1000F000A838B207E1F710E0C2E6D0E004C02197CB
:10010000FE010E944F07C136D107C9F70E9446057C
:100110000C945A070C940000CF92DF92EF92FF925A
:10012000DC01A03282E0B8070CF03EC0B7FD06C08B
:10013000A53BB1052CF0A4EBB0E002C0A0E0B0E01C
:1001400080916E0128E830E06901C81AD10887FD66
:10015000D394CC0CDD1CCC0CDD1C0D2C000CEE085B
:10016000FF0880916F0128E532E0281B310987FDE7
:100170003395220F331F220F331FA901330F660B54
:10018000770B9A01AB012C193D094E095F090E94BA
:100190000A0724EB30E040E050E00E94E006C20E87
:1001A000D31EE41EF51ED60190916D019C3098F58A
:1001B00080916E0148E850E0481B510987FD539536
:1001C000440F551F440F551FA417B5078CF080919D
:1001D0006F0128E532E0281B310987FD3395220F96
:1001E000331F220F331FAD012A173B070CF4A9015F
:1001F00042505109440F551F2FB7F894892F90E0B2
:10020000FC01EE0FFF1F8E0F9F1FFC01E75BFE4FEF
:10021000528341832FBFFF90EF90DF90CF900895DE
:10022000833081F028F4813099F08230A1F0089574
:100230008730A9F08830B9F08430D1F48091800003
:100240008F7D03C0809180008F7780938000089518
:1002500084B58F7702C084B58F7D84BD0895809169
:10026000B0008F7703C08091B0008F7D8093B00085
:100270000895CF93DF93282F30E0F901E255FF4F27
:100280008491F901E656FF4FD491F901EA57FF4FE7
:10029000C491CC2391F081110E941001EC2FF0E069
:1002A000EE0FFF1FE458FF4FA591B491EC91ED23A1
:1002B00081E090E021F480E002C080E090E0DF91F6
:1002C000CF9108951F93CF93DF93282F30E0F9014A
:1002D000E255FF4F8491F901E656FF4FD491F901A1
:1002E000EA57FF4FC491CC23C1F0162F81110E9411
:1002F0001001EC2FF0E0EE0FFF1FEE58FF4FA5911D
:10030000B4919FB7F894111104C08C91D095D82363
:1003100002C0EC91DE2BDC939FBFDF91CF911F9148
:100320000895CF93DF9390E0FC01E656FF4F2491B0
:10033000FC01EA57FF4F8491882361F190E0880F18
:10034000991FFC01E859FF4FC591D491FC01EE586B
:10035000FF4FA591B491611109C09FB7F8948881AE
:10036000209582238883EC912E230BC0623061F4A8
:100370009FB7F8948881322F309583238883EC913E
:100380002E2B2C939FBF06C08FB7F894E8812E2B9D
:1003900028838FBFDF91CF9108953FB7F894809164
:1003A000450190914601A0914701B091480126B5C1
:1003B000A89B05C02F3F19F00196A11DB11D3FBF9D
:1003C000BA2FA92F982F8827820F911DA11DB11D2B
:1003D000BC01CD0142E0660F771F881F991F4A9527
:1003E000D1F708958F929F92AF92BF92CF92DF92F2
:1003F000EF92FF926B017C010E94CD014B015C01E9
:10040000C114D104E104F104F1F00E94CD01DC013A
:10041000CB0188199909AA09BB09883E9340A10517
:10042000B10570F321E0C21AD108E108F10888EEA5
:10043000880E83E0981EA11CB11CC114D104E104F4
:10044000F10419F7DDCFFF90EF90DF90CF90BF90D0
:10045000AF909F908F900895CF92DF92EF92FF928E
:100460000F931F93CF93DF936C017A018B01C0E050
:10047000D0E0CE15DF0581F0D8016D918D01D60158
:10048000ED91FC910190F081E02DC6010995892B39
:1004900011F02196EECF7E01C701DF91CF911F9120
:1004A0000F91FF90EF90DF90CF900895CF93DF935F
:1004B000EC0160E08E810E94620161E08E810E9409
:1004C000620160E08E810E9462018BE891E00197F9
:1004D000F1F7DF91CF910895CF92DF92EF92FF92E3
:1004E0000F931F93CF93DF936C017C0187E0E80E9D
:1004F000F11CC0E0D0E0062F10E0B8010C2E02C0C5
:10050000759567950A94E2F76170F70181917F0113
:100510000E9462012196C430D10579F7C601DF91AE
:10052000CF911F910F91FF90EF90DF90CF900C949F
:100530005602CF92DF92EF92FF920F931F93CF93C9
:10054000DF93EC01F62E642F8C810E9462018D8175
:100550008F3F19F060E00E9462018F850F2D10E03F
:1005600084FF25C06E0187E0C80ED11CE12CF12C60
:10057000B8010E2C02C0759567950A94E2F7617078
:10058000F60181916F010E946201FFEFEF1AFF0AED
:1005900088E0E816F10461F7CE01DF91CF911F9159
:1005A0000F91FF90EF90DF90CF900C945602B8011E
:1005B00084E0759567958A95E1F7CE010E946C02FB
:1005C0006F2DCE01DF91CF911F910F91FF90EF9092
:1005D000DF90CF900C946C0240E0682F80E791E0B0
:1005E0000C94990281E00E94EC028BE39FE1019759
:1005F000F1F70895CF93DF93823028F090917F0137
:10060000986090937F01809383011092840180E42D
:100610008093850180E18093860180E58093870146
:1006200061E0809174010E949101809175018F3F7A
:1006300019F061E00E94910161E0809176010E94D1
:100640009101C0E7D1E09E012057314080917F01A8
:1006500084FD03C084E090E002C088E090E0219631
:10066000281739072CF461E08E810E949101EBCFAD
:100670008BE39DE00197F1F760E0809174010E94A7
:10068000620160E0809176010E94620180917501B3
:100690008F3F19F060E00E94620180917F0184FD2C
:1006A00020C063E080E791E00E946C02CBE4D6E4D6
:1006B000CE010197F1F763E080E791E00E946C02C0
:1006C0002197F1F763E080E791E00E946C0283E5F7
:1006D00092E00197F1F762E080E791E00E946C02FE
:1006E00015C080620E94EC028BE496E40197F1F75A
:1006F00080917F0180620E94EC0283E592E0019785
:10070000F1F780917F0180620E94EC0280917F016D
:1007100080620E94EC0284E0809380018CE00E9461
:10072000EC020E94F20282E08093810186E0DF9178
:10073000CF910C94EC02643008F063E09091830157
:10074000691710F06FEF690FE62FF0E0E059FE4FE8
:100750009489890F80680C94EC0241E00E94990210
:1007600081E090E00895089580E090E0089500977A
:1007700069F0FC0101900020E9F73197AF01481BB7
:10078000590BBC0180E791E00C942C0280E090E0D2
:1007900008958F929F92AF92BF92CF92DF92EF9285
:1007A000FF92CF93DF93CDB7DEB7A1970FB6F89442
:1007B000DEBF0FBECDBF6C01990FEE08FF08F7FE3C
:1007C0002AC041E06DE280E791E00E949902222771
:1007D0003327A9012C193D094E095F0919A2CE0141
:1007E00081967C019AE0892E912CA12CB12CCA0112
:1007F000B901A50194010E941207605DF70162939F
:100800007F01211531054105510589F7CF010E946E
:10081000B70301961DC0A701960119A2CE018196CA
:100820007C018AE0882E912CA12CB12CCA01B9013F
:10083000A50194010E941207605DF70162937F0198
:10084000211531054105510589F7CF010E94B703F4
:10085000A1960FB6F894DEBF0FBECDBFDF91CF914A
:10086000FF90EF90DF90CF90BF90AF909F908F90D0
:1008700008950E9455071F920F920FB60F921124F0
:100880002F933F938F939F93AF93BF938091410199
:1008900090914201A0914301B091440130914001F7
:1008A00023E0230F2D3720F40196A11DB11D05C0B3
:1008B00026E8230F0296A11DB11D209340018093CD
:1008C000410190934201A0934301B0934401809170
:1008D000450190914601A0914701B09148010196D0
:1008E000A11DB11D8093450190934601A09347013E
:1008F000B0934801BF91AF919F918F913F912F91FC
:100900000F900FBE0F901F9018951F920F920FB669
:100910000F9211242F933F934F935F936F937F9385
:100920008F939F93AF93BF93EF93FF9380913F017A
:1009300087FF05C010928500109284001BC0209193
:100940003F01022E000C330B80913E0190E02817EE
:10095000390784F480913F01082E000C990BFC01AB
:10096000EE0FFF1F8E0F9F1FFC01E75BFE4F808184
:1009700086FD15C080913F018F5F80933F012091DC
:100980003F01022E000C330B80913E0190E02817AE
:100990003907C4F480913F018C3064F113C0809119
:1009A0003F01082E000C990BFC01EE0FFF1F8E0F6C
:1009B0009F1FFC01E75BFE4F808160E08F730E9408
:1009C0006201D8CF80918400909185000496803494
:1009D0009C4918F480E49CE905C0809184009091C2
:1009E0008500049690938900809388008FEF809310
:1009F0003F013BC0209184003091850080913F01F0
:100A0000082E000C990BFC01EE0FFF1F8E0F9F1F8D
:100A1000FC01E75BFE4F81819281820F931F9093CF
:100A200089008093880080913F01082E000C990B6B
:100A3000FC01EE0FFF1F8E0F9F1FFC01E75BFE4FB7
:100A4000808186FF12C080913F01082E000C990B17
:100A5000FC01EE0FFF1F8E0F9F1FFC01E75BFE4F97
:100A6000808161E08F730E946201FF91EF91BF91DD
:100A7000AF919F918F917F916F915F914F913F9136
:100A80002F910F900FBE0F901F901895789484B5FA
:100A9000826084BD84B5816084BD85B5826085BD7A
:100AA00085B5816085BD80916E00816080936E0008
:100AB00010928100809181008260809381008091FA
:100AC00081008160809381008091800081608093AB
:100AD00080008091B10084608093B1008091B0006B
:100AE00081608093B00080917A00846080937A0066
:100AF00080917A00826080937A0080917A00816090
:100B000080937A0080917A00806880937A001092B6
:100B1000C10080916D018C3008F051C061E087E028
:100B20000E94910180916D01E82FF0E09F01220F5A
:100B3000331FE20FF31FE75BFE4F9081907C9760BD
:100B4000908310926E0110926F016CE00E94430737
:100B50009CE0899FB001112440E050E09B01240FEC
:100B6000351FF901EE0FFF1F2E0F3F1FF901E75B45
:100B7000FE4F908196FD16C04F5F5F4F4C30510580
:100B800069F781110FC01092800082E0809381008C
:100B90001092850010928400B19A80916F0082605B
:100BA00080936F00E0916D01F0E0CF01880F991FF5
:100BB000E80FF91FE75BFE4F80818064808382E04D
:100BC0000E94FA028EE091E00E94B70361E08AE0A1
:100BD0000E94910161E086E00E94910160E089E05D
:100BE0000E94910160E088E00E94910160E08AE04B
:100BF0000E94620161E086E00E9462018AE590E065
:100C00000E948C00C0E0D0E0809100019091010131
:100C100081309105B9F40E94F20260E081E00E9407
:100C20009B038EE091E00E94B70361E080E00E94A8
:100C30009B0380910001909101010E94C9038DE105
:100C400091E02AC018161906BCF40E94F20260E076
:100C500081E00E949B038EE091E00E94B70361E077
:100C600080E00E949B0380910001909101010E940D
:100C7000C90382E291E010C00E94F20260E081E0CC
:100C80000E949B0388E291E00E94B70361E080E04C
:100C90000E949B038FE291E00E94B70388E00E94CC
:100CA00039010197C9F480910001909101010097E9
:100CB00099F00197909301018093000181EB90E0FE
:100CC0000E948C0068EB7BE080E090E00E94F201E3
:100CD0008AE590E00E948C0089E00E94390101972A
:100CE000D1F480910001909101018730910599F034
:100CF0000196909301018093000181EB90E00E94A6
:100D00008C0068EB7BE080E090E00E94F2018AE5D5
:100D100090E00E948C0064E170E080E090E00E942E
:100D2000F201209709F470CF0E9400006DCFCF939D
:100D3000109273011092720186E091E0909371011C
:100D4000809370018CE080937401CFEFC0937501A4
:100D50008BE08093760185E08093770184E0809337
:100D6000780183E08093790182E080937A01109288
:100D70007B0110927C0110927D0110927E011092F5
:100D80007F0181E00E94FA0280913E018C30A0F444
:100D900091E0980F90933E0180936D0190E0FC01EB
:100DA000EE0FFF1F8E0F9F1FFC01E75BFE4F88EBCE
:100DB0009BE09283818302C0C0936D01CF9108951F
:100DC000052E97FB1EF400940E94F70657FD07D0EE
:100DD0000E94120707FC03D04EF40C94F7065095BE
:100DE0004095309521953F4F4F4F5F4F0895909517
:100DF0008095709561957F4F8F4F9F4F08950E940A
:100E00003407A59F900DB49F900DA49F800D911D58
:100E100011240895B7FF0C94FF060E94FF06821B61
:100E2000930B0895A1E21A2EAA1BBB1BFD010DC056
:100E3000AA1FBB1FEE1FFF1FA217B307E407F5078A
:100E400020F0A21BB30BE40BF50B661F771F881F66
:100E5000991F1A9469F760957095809590959B01FC
:100E6000AC01BD01CF010895A29FB001B39FC001A5
:100E7000A39F700D811D1124911DB29F700D811DC6
:100E80001124911D0895991B79E004C0991F9617AC
:100E900008F0961B881F7A95C9F780950895EE0F84
:100EA000FF1F0590F491E02D099481E090E0F89403
:080EB0000C945A07F894FFCFDF
:100EB800070000000000AD032C02B403B303537015
:100EC800616365206C65667420666F7200206361DB
:100ED8007200206361727300536F72727921004E41
:0E0EE8006F20706C616365206C65667421007C
:107E0000112484B714BE81FFF0D085E080938100F7
:107E100082E08093C00088E18093C10086E0809377
:107E2000C20080E18093C4008EE0C9D0259A86E02C
:107E300020E33CEF91E0309385002093840096BBD3
:107E4000B09BFECF1D9AA8958150A9F7CC24DD24C4
:107E500088248394B5E0AB2EA1E19A2EF3E0BF2EE7
:107E6000A2D0813461F49FD0082FAFD0023811F036
:107E7000013811F484E001C083E08DD089C08234E0
:107E800011F484E103C0853419F485E0A6D080C0E4
:107E9000853579F488D0E82EFF2485D0082F10E0AE
:107EA000102F00270E291F29000F111F8ED06801E7
:107EB0006FC0863521F484E090D080E0DECF843638
:107EC00009F040C070D06FD0082F6DD080E0C81688
:107ED00080E7D80618F4F601B7BEE895C0E0D1E017
:107EE00062D089930C17E1F7F0E0CF16F0E7DF06D8
:107EF00018F0F601B7BEE89568D007B600FCFDCFD4
:107F0000A601A0E0B1E02C9130E011968C91119780
:107F100090E0982F8827822B932B1296FA010C0160
:107F200087BEE89511244E5F5F4FF1E0A038BF0790
:107F300051F7F601A7BEE89507B600FCFDCF97BE46
:107F4000E89526C08437B1F42ED02DD0F82E2BD052
:107F50003CD0F601EF2C8F010F5F1F4F84911BD097
:107F6000EA94F801C1F70894C11CD11CFA94CF0C13
:107F7000D11C0EC0853739F428D08EE10CD085E9AC
:107F80000AD08FE07ACF813511F488E018D01DD067
:107F900080E101D065CF982F8091C00085FFFCCF94
:107FA0009093C60008958091C00087FFFCCF809118
:107FB000C00084FD01C0A8958091C6000895E0E648
:107FC000F0E098E1908380830895EDDF803219F02E
:107FD00088E0F5DFFFCF84E1DECF1F93182FE3DFCA
:107FE0001150E9F7F2DF1F91089580E0E8DFEE27F6
:047FF000FF270994CA
:027FFE00040479
:0400000300007E007B
:00000001FF
